:020000040800F2
:10000000D05300202902000859100008170E0008DC
:1000100055100008D1040008C9260008000000009F
:100020000000000000000000000000003324000871
:10003000A90B00080000000021110008212500087C
:10004000430200084302000843020008430200087C
:10005000430200084302000843020008430200086C
:10006000430200084302000843020008430200085C
:100070004302000843020008430200083108000858
:10008000430200084302000843020008430200083C
:10009000430200084302000843020008430200082C
:1000A000430200084302000843020008430200081C
:1000B000430200084302000843020008430200080C
:1000C00043020008430200084302000843020008FC
:1000D0003D230008430200084302000843020008D1
:1000E00043020008430200084302000843020008DC
:1000F00043020008430200084302000843020008CC
:1001000043020008430200084302000843020008BB
:1001100043020008430200084302000843020008AB
:10012000430200084302000843020008430200089B
:10013000430200084302000843020008430200088B
:10014000430200084302000843020008430200087B
:10015000430200084302000843020008430200086B
:10016000430200084302000843020008430200085B
:10017000430200084302000843020008430200084B
:10018000430200084302000800F002F800F03CF8C7
:100190000AA090E8000C82448344AAF10107DA45E2
:1001A00001D100F031F8AFF2090EBAE80F0013F0F8
:1001B000010F18BFFB1A43F001031847583B00001A
:1001C000783B0000103A24BF78C878C1FAD85207AB
:1001D00024BF30C830C144BF04680C6070470000C1
:1001E0000023002400250026103A28BF78C1FBD840
:1001F000520728BF30C148BF0B6070471FB503F0DE
:1002000084FD1FBD10B510BD00F06EF81146FFF75C
:10021000F5FF03F023FC00F0A0F803B4FFF7F2FFB2
:1002200003BC02F0C3FB00000948804709480047AF
:10023000FEE7FEE7FEE7FEE7FEE7FEE7FEE7FEE796
:10024000FEE7FEE704480549054A064B70470000F3
:100250002925000889010008D0110020D053002072
:10026000D0130020D0130020704700000FB40449C1
:1002700010B503AA029800F009F810BC5DF814FB51
:10028000380000207047704770477047074B70B5C3
:100290000D467B4400F011F80446284600F020F893
:1002A00010B14FF0FF3070BD204670BDBB3600006E
:1002B00001694A1C02610878704700B58FB0CDE92A
:1002C00001310021059105497944CDE9031011461A
:1002D000684600F02EF80FB000BD0000E5FFFFFFFC
:1002E000007B00F080007047754600F03DF8AE4698
:1002F00005006946534620F00700854618B020B532
:10030000FFF7A0FFBDE820404FF000064FF00007C8
:100310004FF000084FF0000B21F00701AC46ACE8AD
:10032000C009ACE8C009ACE8C009ACE8C0098D461A
:1003300070472DE9F04106460024D6E90170F568C2
:100340008046304603E04146B847641C3046A84723
:100350000028F8D12046BDE8F0810446AFF30080C4
:100360002046FFF75AFF0000004870477011002038
:1003700010B5044600F05EFD204600F06BF800F07A
:100380001BF810BD01220A4B1A600A4A12682AB1F2
:10039000084A1268A2F58062064B1A60054A126884
:1003A000B2F5806F02D20022024B1A607047000043
:1003B000040000200000002008B50121480500F0DD
:1003C000B1FE0021204800F0B5FA1F4800F0BEFA47
:1003D00000201E4908601E484860002088604020B8
:1003E000C8604FF6FE700861002048614FF48060DD
:1003F00088614000C86180000862002048624FF4B4
:10040000003088620020C8620863486388630E4831
:1004100000F09EFB012210210B4800F07BFB0F2017
:100420008DF8000000208DF801008DF802000120F9
:100430008DF80300684600F02DFE012202210448D9
:100440000C3801F089FF08BD706002407010002078
:100450000C3800401FB504460121880300F072FEED
:100460000A4801F083FF02940020ADF80200ADF8C5
:100470000400ADF80C004FF40070ADF80000ADF8CA
:1004800006006946014800F019FD1FBD0038004014
:1004900070B505460C460B4885606008094908613F
:1004A000094800F055FB0121074800F043FA0748CE
:1004B000008800F4806020B9012104481C3800F055
:1004C000ACFC70BD70100020706002401C38004011
:1004D00000BFFEE710B586B004460121084600F0D3
:1004E00021FE0121102000F04DFE072209211B48AA
:1004F00000F06EFC07220A21184800F069FC4FF456
:10050000C060049002208DF8150000208DF81600C0
:1005100001208DF8170002208DF8140004A90F485F
:1005200000F00EFC00940020ADF80400ADF80600C9
:10053000ADF80800ADF80C000C20ADF80A006946D3
:10054000074802F053F80121054802F036F840212F
:10055000034802F029F806B010BD00000000024078
:100560000010014070B500254FF4803400E0641E97
:1005700024B1802000F07AFF0028F8D014B90325B8
:10058000284670BD40F2FF5000F032FF2846F8E7E1
:100590002DE9F041064600274848056801E0474834
:1005A000056805F045000028F9D005F0040030B1D9
:1005B0000327042000F01CFF3846BDE8F08105F059
:1005C000010028B10127012000F012FF3846F4E7AE
:1005D00000F046FFB04202D010273846EDE740F267
:1005E000FF5000F005FF002000F054FF044634489F
:1005F000204008B93846E0E704F0004008B11C206C
:10060000DBE704F0804008B10920D6E704F0005091
:1006100008B10A20D1E704F0805008B10B20CCE7E4
:1006200004F0006008B10C20C7E704F0806008B156
:100630000D20C2E704F0807008B10E20BDE704F47D
:10064000000008B10F20B8E704F4800008B11020C2
:10065000B3E704F4001008B11120AEE704F48010F1
:1006600008B11220A9E704F4002008B11320A4E780
:1006700004F4802008B114209FE704F4003008B18E
:1006800015209AE704F4803008B1162095E704F4A9
:10069000004008B1172090E704F4804008B118200A
:1006A0008BE704F4005008B1192086E704F0080035
:1006B00008B11A2081E738467FE70000342C01405A
:1006C00008E0FFFD70B500251048046801E00F4800
:1006D000046804F045000028F9D004F0040028B1B3
:1006E0000325042000F084FE284670BD04F00100BC
:1006F00028B10125012000F07BFE2846F5E740F2F5
:10070000FF5000F075FE2846EFE70000342C014052
:1007100070B500250B48046801E00A48046804F03D
:1007200045000028F9D004F0040028B10325042076
:1007300000F05EFE284670BD40F2FF5000F058FE0B
:100740002846F8E7342C01402DE9F04106460F46D3
:100750004FF000082248056801E02148056805F0CF
:1007600045000028F9D005F0040038B14FF0030827
:10077000042000F03DFE4046BDE8F08105F0010098
:1007800030B14FF00108012000F032FE4046F3E79F
:1007900000F066FEB04203D04FF010084046EBE791
:1007A00040F2FF5000F024FE002000F073FE0446EB
:1007B00004F4604018B9200C38804046DCE704F4AB
:1007C000005008B11320D7E704F4804008B110208E
:1007D000D2E704F4004008B10F20CDE74046CBE754
:1007E000342C014070B500264FF480350F48046862
:1007F00002E06D1E0D48046804F0450008B9002DA4
:10080000F7D115B104F0040028B10326042000F04C
:10081000EFFD304670BD04F0400028B100264020B6
:1008200000F0E6FD3046F5E73046F3E7342C0140B2
:1008300010B52E492E4800F04BF9002855D02D4810
:100840000068002844D000BF294800F036F900288D
:10085000FAD12649264800F053F82748006827496E
:10086000886024480068B0F5803F02D221480068C3
:1008700001E04FF6FF70214908611D4800F068F95A
:1008800001211B4800F056F81B4800681949096807
:10089000B1F5803F02D21749096801E04FF6FF71B8
:1008A00000EB41001449086012480068B0F5803F31
:1008B00002D21048006801E04FF6FF700D49096848
:1008C000081A0C4908600121094800F033F80CE0CF
:1008D0000021074800F02EF80449054800F010F800
:1008E000002105480068FFF74DFD10BD20000020E5
:1008F00070600240180000201C00002070100020D2
:100900000246094B9A4201D2084801E006481038D5
:1009100001F000531BB1064B0B40C36002E0044BD7
:100920000B4083607047000010640240006002408A
:100930007D0F7D0F21B1026842F00102026003E0E9
:10094000026822F00102026070470000016821F095
:10095000010101600021016041608160C1600161AD
:10096000212141614A49884204D13D21484A103A37
:1009700091608CE046491831884205D14FF474618A
:10098000434A103A916082E041493031884205D1B2
:100990004FF474113E4A103A916078E03C49483176
:1009A000884205D14FF07461394A103A91606EE087
:1009B00037496031884204D13649354A103AD1600E
:1009C00065E033497831884204D13349304A103ADE
:1009D000D1605CE02E499031884204D12F492C4AE5
:1009E000103AD16053E02A49A831884205D14FF02E
:1009F0003D51274A103AD16049E02949884204D143
:100A00003D21274A083A116041E0254918318842C2
:100A100005D14FF47461224A083A116037E0204949
:100A20003031884205D14FF474111D4A083A1160E3
:100A30002DE01B494831884205D14FF07461184AB6
:100A4000083A116023E016496031884204D1114907
:100A5000134A121F11601AE011497831884204D1FB
:100A60000D490F4A121F116011E00D499031884263
:100A700004D10A490A4A121F116008E00849A83146
:100A8000884204D14FF03D51054A121F1160704752
:100A9000106002403D000020400F002000003D207B
:100AA0001064024021B1026842F02002026003E0BB
:100AB000026822F0200202607047014600200A68A6
:100AC00002F001020AB1012000E00020704700009E
:100AD00030B503460A46002000240B4DAB4201D23C
:100AE0000A4901E00849103902F000550DB14C687F
:100AF00000E00C68064D2C4004EA02050DB101200F
:100B000000E0002030BD00001064024000600240A0
:100B10007D0F7D0F10B501F080034BB122B1436909
:100B200043F08003436103E0436923F080034361A2
:100B300080290BD02AB1036801F01E04234303600F
:100B400004E0036801F01E04A343036010BD00002D
:100B500010B500220268134B1A40CC680B6823437F
:100B60004C6923438C692343CC6923430C6A234398
:100B70004C6A23438C6A23434C6B23438C6B234383
:100B80001A430260426922F00702D1E90B34234381
:100B90001A4342610B6943604B6883608B68C36092
:100BA00010BD00003F801CF0704700002DE9FC41A3
:100BB00007460D46002600240020009001900820E2
:100BC0005B49086010204860402088600020C860B1
:100BD0004FF480600861084600F096FC1020FFF793
:100BE000D7FC044614B12046BDE8FC81514800887A
:100BF00000044F490860372048604020886000208A
:100C0000C8604FF480600861084600F07DFC372022
:100C1000FFF7BEFC04460CB12046E5E74FF0FF307D
:100C20004549086008204860302088600220C8607C
:100C30000020086101204861084600F0EBFB00201D
:100C40003B49086033204860402088600020C8602D
:100C50004FF480600861084600F056FC3320FFF72F
:100C600097FC04460CB12046BEE709E04FF40010A3
:100C700000F0FCFB20B100F041FC4DF82600761C92
:100C80002E48006840F22A6108400028EED0082073
:100C900000F0ECFB28B1082000F0AAFB0424204659
:100CA000A2E7022000F0E2FB28B1022000F0A0FB46
:100CB0000224204698E7202000F0D8FB28B120200D
:100CC00000F096FB062420468EE74FF4007000F0FB
:100CD000CDFB30B14FF4007000F08AFB07242046B2
:100CE00082E740F2FF5000F083FB00980006009975
:100CF00001F47F4140EA0120009901F47F0140EABC
:100D00001120009940EA116068600198000601997D
:100D100001F47F4140EA0120019901F47F0140EA9A
:100D20001120019940EA1160286020465CE700002C
:100D3000441100202400002058110020342C0140D0
:100D4000F0B50A4600210023002400BF3DE0012544
:100D500005FA01F3156805EA03049C4234D10568DD
:100D60004F000326BE40B543056015794E00B540DF
:100D70000668354305601579012D02D01579022DDD
:100D800016D185684F000326BE40B543856055796E
:100D90004E00B540866835438560456801268E4023
:100DA000B5434560456896798E40B6B23543456097
:100DB000C5684F000326BE40B543C560D5794E00D7
:100DC000B540C6683543C560491C1029BFD3F0BD86
:100DD000F0B5002300244D07ED0E02FA05F3CE1006
:100DE00000F1200555F826504E07F70E0F26BE409D
:100DF000B543CF1000F1200646F82750CE1000F181
:100E0000200555F8265045EA0304CE1000F12005D0
:100E100045F82640F0BD00BFFEE721B1828B42F4C9
:100E20008062828304E0828B4FF6FF331A40828314
:100E3000704700001CB50121022000F073F9012168
:100E4000042000F06FF94FF40640009002208DF866
:100E500004008DF8050000208DF806008DF80700CD
:100E600069461448FFF76CFF052209211148FFF776
:100E7000AFFF05220A210F48FFF7AAFF05220F2125
:100E80000C48FFF7A5FF4020009002208DF80400D9
:100E90008DF8050000208DF806008DF807006946E2
:100EA0000548FFF74DFF052206210348FFF790FF95
:100EB0001CBD000000040240000802402DE9F04F74
:100EC0000025022300244FF00109002200260027FC
:100ED00094469046B0F81CA04FF2400B0AEA0B0A69
:100EE000A0F81CA04FF0020AA0F820A0858BD1F832
:100EF00008A0BAF1020F01D100BF82E0B1F804A04E
:100F0000BAF1000F02D14FF0010901E04FF00209E0
:100F1000DFF834A1DAF800A00AF4000ABAF1000FF1
:100F200009D0DFF824A1DAF800A02AF4000ADFF8DB
:100F300018B1CBF800A0DFF810A10AF17C0ADAF8AA
:100F400000A0CAF3881CDFF800A10AF17C0ADAF8D5
:100F500000A0CAF30278DFF8F0A0AAF1040ADAF8D8
:100F600000A00AF03F07DFF8E0A0AAF1040ADAF8CF
:100F700000A00AF4800ABAF5800F08D1DFF8CCA0EF
:100F8000BAFBF7FA0AFB0CFABAFBF8F607E0DFF84F
:100F9000C0A0BAFBF7FA0AFB0CFABAFBF8F6B1F8F4
:100FA00006A0BAF5007F0ED14FEA162A0AEB8A0A8C
:100FB0004FEA4A0AD1F808B0BAFBFBFA0AF1050A6F
:100FC0001FFA8AF20FE04FEA491AB6FBFAFA0AEB67
:100FD0008A0A4FEA4A0AD1F808B0BAFBFBFA0AF1CA
:100FE000050A1FFA8AF24FF00A0AB2FBFAF202F07F
:100FF0000104A2EB040ACAF34F034FF6FF7A0AEA90
:101000000424022B01DBFF2B01DD02230024B1F8B5
:1010100006A04AEA040A4AEA030AA0F820A0B1F8A6
:1010200004A0B1F80CB04AEA0B0AB1F802B04AEADF
:101030000B0AB1F800B04AEA0B0A4AF4006A4AEA1D
:1010400005058583BDE8F08F0838024000127A005C
:101050000024F40000BFFEE7704708B54FF4C060FD
:1010600000F054F831208DF8000000208DF80100C8
:101070008DF8020001208DF80300684600F00AF8A0
:101080003B208DF8000001208DF80100684600F03B
:1010900001F808BD70B5002100230F22C4781CB3ED
:1010A000174C246804F4E064C4F5E064C4F3072139
:1010B000C1F10404E3B20A4144789C40E1B284786F
:1010C000144021430C07210E0E4C0578615504781D
:1010D00004F01F050124AC4005786D11AD0005F149
:1010E000E025C5F8004109E0047804F01F0501245B
:1010F000AC40054D0678761145F8264070BD0000DD
:101100000CED00E000E400E080E100E00249014372
:10111000024A1160704700000000FA050CED00E083
:101120007047000029B1064A12680243044B1A6056
:1011300004E0034A12688243014B1A6070470000C2
:101140003038024029B1064A12680243044B1A6043
:1011500004E0034A12688243014B1A6070470000A2
:101160004038024029B1064A12680243044B1A6013
:1011700004E0034A12688243014B1A607047000082
:101180002038024029B1064A12680243044B1A6013
:1011900004E0034A12688243014B1A607047000062
:1011A0004438024029B1064A12680243044B1A60CF
:1011B00004E0034A12688243014B1A607047000042
:1011C00024380240F0B50021002200240225002628
:1011D0000223324F3F6807F00C0121B1042905D0EA
:1011E000082937D105E02E4F076036E02D4F076004
:1011F00033E02A4F3F1F3F68C7F38056274F3F1FFA
:101200003F6807F03F036EB1264FB7FBF3F7DFF8F7
:101210008CC0ACF1040CDCF800C0CCF3881C07FBDC
:101220000CF40CE01E4FB7FBF3F7DFF870C0ACF125
:10123000040CDCF800C0CCF3881C07FB0CF4174F3F
:101240003F1F3F68C7F301477F1C7D00B4FBF5F7E4
:10125000076002E0124F076000BF00BF0F4F3F68FA
:1012600007F0F0010909104F7A5C0768D740476022
:101270000A4F3F6807F4E051890A0B4F7A5C4768D0
:10128000D7408760054F3F6807F46041490B064F20
:101290007A5C4768D740C760F0BD0000083802405C
:1012A0000024F40000127A0040000020F0B504464B
:1012B0000D460021002000BF05E06E18A65DCF009E
:1012C000BE403043491C9142F7D3012B00D100BAF4
:1012D000F0BD00007CB50546002400200090019080
:1012E00000F0D8F800F0007010B10E2420467CBD4C
:1012F0003D49098888B26946FFF758FC04460CB19D
:101300002046F4E7012D36D1019800F48020002812
:101310002ED03548008800043449086037204860E2
:10132000402088600020C860A8020861084600F0DC
:10133000EBF83720FFF72CF904460CB12046D6E72E
:1013400002202A490860062048604020886000206A
:10135000C8604FF480600861084600F0D5F80620A8
:10136000FFF716F904460CB12046C0E72046BEE759
:1013700025242046BBE7019800F4803078B31A4852
:1013800000880004194908603720486040208860C0
:101390000020C8604FF480600861084600F0B4F88F
:1013A0003720FFF7F5F804460CB120469FE70020F0
:1013B0000E49086006204860402088600020C86010
:1013C0004FF480600861084600F09EF80620FFF7A1
:1013D000DFF804460CB1204689E7204687E7FFE79F
:1013E0002524204683E7000024000020441100202B
:1013F0000149086070470000382C0140014908602D
:1014000070470000A0802542014908607047000035
:101410008C85254200210B4B02681A601B1D426817
:101420001A601A1D116821F0F701D0E902231A434E
:1014300003691A4343691A431143024A083211608F
:1014400070470000242C014010B50121C802FFF7AD
:10145000A9FE00214FF40060FFF7A4FE10BD0000BC
:1014600001480068C0B27047102C014001460020BE
:10147000034A12680A400AB1012000E000207047C8
:10148000342C01400248006800F00300704700005F
:10149000002C014008B50146002000900248084495
:1014A00000900098006808BD142C014029B1064A3C
:1014B00012680243044B1A6004E0034A1268824334
:1014C000014B1A60704700003C2C014000210A4A81
:1014D000116847F6FF629143027D83681A434368AF
:1014E0001A43C3681A4303681A4303691A43114332
:1014F000014A116070470000042C01400148006857
:1015000070470000802C01400021094B02681A60DE
:101510001A1D11686FF30A01D0E901231A43C36849
:101520001A4303691A431143014A121D116070479F
:10153000082C01400149086070470000002C014060
:1015400008B5012000909DF8000008BD70B5044664
:10155000002520480068032802D12725284670BDB1
:101560001C48006838B11B480068012803D019489E
:10157000006802282CD1B4F5805F02D127252846C7
:10158000EDE7B4F5006F13D10120FFF7A3FE054688
:10159000F5B90020104908750860486088604FF46C
:1015A0000060C860002008610846FFF78FFF0FE069
:1015B0000020FFF78FFE054655B900200649087543
:1015C000086048608860C86008610846FFF77EFFD1
:1015D0002846C4E7200000202C11002030B5014629
:1015E00000200022AC4B1B7881F84E30AB4B1B889F
:1015F000A1F84C30AA4B1B681A0E93090B70C2F36A
:1016000083034B7002F003038B70A54B1B68C3F37D
:101610000742CA70A24B1B88C3F307220A71A04B72
:101620001A784A715B681A0E1301CB809C4B5B6879
:10163000C3F30742CB8843EA1213CB8002F00F03B7
:101640000B72974B9B88C3F30722D3094B72C2F3EB
:1016500080138B72C2F34013CB72C2F300130B736F
:1016600000234B738C4B1B681BB18B4B1B68012BEE
:101670003CD193071B0D0B61894B1A790B6943EA27
:1016800082030B61864B9B681A0E0B6943EA921327
:101690000B61C2F3C2030B7502F007034B75804B5D
:1016A0009B68C3F3074253098B75C2F38203CB7562
:1016B00093075B0F0B767A4B1B89C3F307220B7ED4
:1016C00043EAD2130B760B695B1C4B640C7E4B6CAC
:1016D000A41C0125A5406B434B640C7A0123A34055
:1016E0008B64D1E9113463434B6421E06A4B1B687E
:1016F000022B1DD16A4B1A7993069B0A0B61684B2A
:101700009B681A0E0B6943EA02230B61644B9B68CA
:10171000C3F307420B6913430B61614B1B89C3F38E
:1017200007220B695B1CDB044B644FF400738B6472
:10173000C2F3801301F8193F93065B0E4B70584BB0
:101740001A7A4B7843EAD2134B7002F07F038B7006
:10175000534BDB681A0ED309CB70C2F341130B71E4
:10176000C2F382034B7193071B0F8B714C4BDB68E9
:10177000C3F307428B7943EA92138B71C2F3401390
:10178000CB7100230B7202F001034B72444B9B8917
:10179000C3F30722D3098B72C2F38013CB72C2F357
:1017A00040130B73C2F300134B73C2F381038B73AB
:1017B00002F00303CB733A4B1A7B53080B740123DB
:1017C0004B74384B1B681A0ECA741939354B1B6899
:1017D000C3F307421402CC85324B1B88C3F30722A4
:1017E000CB8D1343CB852F4B1A7814060C635B68A3
:1017F0001A0E0B6B43EA02440C632A4B5B68C3F37B
:1018000007420B6B43EA02240C63264B9B88C3F30D
:1018100007220B6B13430B63224B1A7934235A5460
:10182000204B9B681A0E35235A541E4B9B68C3F3FA
:10183000074214068C631B4B1B89C3F307228B6B77
:1018400043EA02448C63174B1A7A8B6B43EA0224F7
:101850008C63144BDB681A0E8B6B13438B63114B39
:10186000DB68C3F307423C235B5C43EA12143C236E
:101870005C5413071C0DCC870A4B9B89C3F30722CA
:10188000CB8F1343CB87074B1A7B540840235C5400
:10189000012441235C5430BD20000020240000209E
:1018A000AC100020BC10002008B500200090FFF70D
:1018B00047FE012809D1684600F0ACFB08B1FF20C3
:1018C00008BD0098C0F34320FAE7FF20F8E710B501
:1018D0000424FFF7E9FF0446042C01D1002010BDC9
:1018E000FF2C01D10220FAE70120F8E708B500201B
:1018F0000090FFF7B2FB00F069F9FFF7A5FD00F0DB
:10190000B9F900909DF8000010B19DF8000008BDE5
:1019100000F030F800909DF8000010B19DF8000034
:10192000F5E7002011490875086048608860C860C4
:1019300008610846FFF7CAFD0D48FFF74FFE00900B
:101940009DF8000030B90A49B1F84C10080400F0C5
:1019500047FB00909DF8000020B94FF40060FFF7AE
:10196000F5FD00909DF80000D1E700002C1100204B
:10197000DC10002038B5002401200090FFF782FD24
:1019800010B92524204638BD44480068042828D0D2
:1019900000204349086002204860C0208860002081
:1019A000C8604FF4806008610846FFF7ADFDFEF7A0
:1019B00089FE04460CB12046E5E70020FFF76AFDEA
:1019C000384908600420FFF765FD36494860082063
:1019D000FFF760FD334988600C20FFF75BFD31495C
:1019E000C8602E48006858B12C480068012807D00C
:1019F0002A480068062803D028480068022816D123
:101A000000202749086003204860402088600020AB
:101A1000C8604FF4806008610846FFF775FD6946AD
:101A20000320FEF791FE04460CB12046ABE71B48AD
:101A3000006804282ED0BDF800001B490860BDF8DE
:101A4000000000041649086009204860C020886032
:101A50000020C8604FF4806008610846FFF754FD1D
:101A6000FEF730FE04460CB120468CE70020FFF75D
:101A700011FD0E4908600420FFF70CFD0B4948607A
:101A80000820FFF707FD094988600C20FFF702FDD9
:101A90000649C8600024204675E7000020000020A9
:101AA00044110020BC10002024000020AC100020B5
:101AB00030B58FB004460D464FF0FA511D48FEF781
:101AC0001FFF00211B48FEF735FF1A48FEF73EFFB7
:101AD0004FF000600090184801900294002003909D
:101AE000049005904FF4806006908000079080007D
:101AF0000890002009904FF440300A9004200B9089
:101B000003200C904FF400000D9080100E90694659
:101B10000848FFF71DF8012210210648FEF7FAFFDA
:101B200020210448FEF7BEFF01210248FEF702FF14
:101B30000FB030BD58640240802C014030B58FB0EA
:101B400004460D464FF0FA511E48FEF7D9FE00211B
:101B50001C48FEF7EFFE1B48FEF7F8FE4FF0006052
:101B600000901948019002944020039000200490B6
:101B700005904FF4806006908000079080000890E8
:101B8000002009904FF440300A9004200B9003206D
:101B90000C904FF400000D9080100E90694609489B
:101BA000FEF7D6FF012210210648FEF7B3FF2021E1
:101BB0000448FEF777FF01210248FEF7BBFE0FB095
:101BC00030BD000058640240802C01401CB501214A
:101BD0000C20FFF7A7FA0C2208212448FFF7F8F899
:101BE0000C2209212148FFF7F3F80C220A211F4893
:101BF000FFF7EEF80C220B211C48FFF7E9F80C2246
:101C000011461A48FFF7E4F80C2202211848FFF7A2
:101C1000DFF84FF47060009001208DF8050002207D
:101C20008DF8040000208DF8060001208DF80700D3
:101C300069460E48FFF784F80420009069460C4876
:101C4000FFF77EF84FF48050009000208DF80700D9
:101C500069460648FFF774F80121C802FFF792FAB7
:101C600001218805FFF75EFA1CBD00000008024054
:101C7000000C0240F8B5002000900025002400264A
:101C8000002776205F49087500200860486088605A
:101C9000C86008610846FFF719FC0320FFF74AFCFB
:101CA0000120FFF7ABFB00205749086048608860BF
:101CB000C8604FF4806008610846FFF725FCFEF716
:101CC00051FC00909DF8000010B19DF80000F8BD97
:101CD0004FF4D5704C490860082048604020886067
:101CE0000020C8604FF4806008610846FFF70CFCD4
:101CF000FEF778FD00909DF8000020B901204349CF
:101D00000860870712E000203F49086037204860DC
:101D1000402088600020C8604FF480600861084659
:101D2000FFF7F2FB3720FEF733FC00900020364926
:101D3000086037204860402088600020C8604FF469
:101D4000806008610846FFF7DFFB3720FEF720FCC4
:101D500000909DF80000002851D13BE000202A4966
:101D6000086037204860402088600020C8604FF439
:101D7000806008610846FFF7C7FB3720FEF708FCC4
:101D800000909DF8000010B19DF800009FE72048EA
:101D900038431D49086029204860402088600020A1
:101DA000C8604FF4806008610846FFF7ADFBFEF79E
:101DB000AFFC00909DF8000010B19DF8000086E790
:101DC0000020FFF767FB0546012080EAD57080F010
:101DD0000106641C1EB94FF6FF708442BED34FF655
:101DE000FF70844204D31B2000909DF800006EE732
:101DF00005F08040050002D00220044908609DF8EB
:101E0000000064E72C110020441100202000002075
:101E1000000010802DE9F04107460D4614460026CB
:101E200000202D4908702D4908602D4908602D4972
:101E300008604C152C480068022801D100BF6D0ACB
:101E40002A4804601020294948604020886000200A
:101E5000C8604FF4806008610846FFF755FB10200A
:101E6000FEF796FB064616B13046BDE8F0814FF00E
:101E7000FF301F49086008464460902088600220B7
:101E8000C86000200861012048610846FFF7C2FAD7
:101E900016480560112015494860402088600020E0
:101EA000C8604FF4806008610846FFF72DFB1120E1
:101EB000FEF76EFB06460EB13046D6E7012140F232
:101EC0002A30FFF7F3FA0120FFF79EFA2146384641
:101ED000FFF7EEFD3046C8E72C0000203000002060
:101EE000280000202C2C014020000020441100205C
:101EF000581100202DE9F04180460D4614461E463B
:101F0000002700202F4908702F49086001202F4921
:101F1000086000202E4908604C152E4800680228F1
:101F200001D100BF6D0A2C48046010202A49486086
:101F3000402088600020C8604FF480600861084637
:101F4000FFF7E2FA1020FEF723FB074617B13846E9
:101F5000BDE8F0814FF0FF302049086006FB04F037
:101F60004860902088600220C8600020086101203D
:101F700048610846FFF74EFA1748056012201649D7
:101F80004860402088600020C8604FF4806008618D
:101F90000846FFF7B9FA1220FEF7FAFA07460FB122
:101FA0003846D5E7012140F22A30FFF77FFA0120B9
:101FB000FFF72AFA06FB04F14046FFF779FD3846A1
:101FC000C6E700002C000020300000202800002080
:101FD0002C2C01402000002044110020581100202A
:101FE00070B5044600250A48046007200849486087
:101FF000402088600020C8604FF480600861084677
:10200000FFF782FA0720FEF7C3FA0546284670BD9F
:102010004411002070B50446002514B92625284631
:1020200070BD0F48008800040E4908600D2048600C
:10203000402088600020C8604FF480600861084636
:10204000FFF762FA0D20FEF7A3FA05460DB1284608
:10205000E6E70020FFF71EFA20602846E0E70000D0
:10206000240000204411002010B5002400200A495B
:1020700008600C204860402088600020C8604FF451
:10208000806008610846FFF73FFA0C20FEF780FAEF
:102090000446204610BD00004411002070B5002504
:1020A0006C1E00E0641E1748006838B916480068C6
:1020B00020B91648007808B9002CF3D10020114946
:1020C0000860441E00E0641E1148006800F40050DF
:1020D00008B1002CF7D10F480068012802D1FFF7A2
:1020E000C3FF05460CB905B9042540F2FF50FFF7C0
:1020F0007FF90648007810B10448007870BD284682
:10210000FCE7000034000020300000202C000020FC
:10211000342C0140280000202DE9F04107460D46EF
:102120001446002600202C4908702C4908602C49D0
:1021300008602C4908602C480068022801D104027C
:102140006D0A2A48046010202849486040208860B1
:102150000020C8604FF4806008610846FFF7D4F99A
:102160001020FEF715FA064616B13046BDE8F0819C
:102170001E48056018201D494860402088600020E6
:10218000C8604FF4806008610846FFF7BDF9182069
:10219000FEF7FEF906460EB13046E7E74FF0FF3096
:1021A0001349086008464460902088600020C86099
:1021B0000861012048610846FFF72CF9012140F22F
:1021C0002A30FFF773F921463846FFF7B7FC0120A4
:1021D000FFF71AF93046C9E72C0000203000002034
:1021E000280000202C2C0140200000204411002059
:1021F000581100202DE9F04180460F4615461E4635
:1022000000240020454908704549086001204549DF
:10221000086000204449086044480068022801D151
:1022200005027F0A4248056010204149486040206D
:1022300088600020C8604FF4806008610846FFF79E
:1022400063F91020FEF7A4F9044614B12046BDE856
:10225000F08138480088000435490860372048601C
:10226000402088600020C8604FF480600861084604
:10227000FFF74AF93720FEF78BF904460CB12046E8
:10228000E5E72B4806601720294948604020886010
:102290000020C8604FF4806008610846FFF734F9F9
:1022A0001720FEF775F904460CB12046CFE7204809
:1022B000076019201E494860402088600020C860DF
:1022C0004FF4806008610846FFF71EF91920FEF7F9
:1022D0005FF904460CB12046B9E74FF0FF301649CC
:1022E000086006FB05F04860902088600020C86008
:1022F0000861012048610846FFF78CF8012140F28F
:102300002A30FFF7D3F80120FFF77EF806FB05F12E
:102310004046FFF713FC204699E700002C00002000
:1023200030000020280000202C2C0140200000203C
:1023300044110020240000205811002010B5022173
:10234000044800F06BF818B10021024800F06FF863
:1023500010BD0000003800401AB183880B43838011
:1023600002E083888B4383807047000010B50446E9
:102370002448844208D101218014FEF713FF002174
:10238000A014FEF70FFF3CE01F48844208D1012152
:102390000014FEF7E7FE00212014FEF7E3FE30E014
:1023A0001A48844208D10121C013FEF7DBFE002148
:1023B000E013FEF7D7FE24E01548844208D101213E
:1023C0004014FEF7EFFE00216014FEF7EBFE18E06C
:1023D0001048844209D101210805FEF7E3FE0021DF
:1023E0004FF48010FEF7DEFE0BE00B48844208D16C
:1023F00001214805FEF7D6FE00214FF40010FEF73C
:10240000D1FE10BD0030014000380040003C0040CB
:1024100000340140005001400054014002460020B9
:1024200013890B400BB1012000E00020704781812F
:10243000704770470CB50020019000903448006848
:1024400040F480303249086000BF3148006800F431
:10245000003000900198401C0190009818B9019834
:10246000B0F5A04FF1D12A48006800F4003010B157
:102470000120009001E0002000900098012846D142
:1024800023484030006840F08050214940310860C6
:102490002048006840F440401E4908601C4808304D
:1024A00000681B49083108600846006840F4004095
:1024B00008600846006840F4A05008601648091FEC
:1024C0000860081F006840F08070091F086000BFA6
:1024D0000F48006800F000700028F9D040F2057045
:1024E0000E4908600A480830006820F003000849D7
:1024F000083108600846006840F00200086000BF2C
:1025000003480830006800F00C000828F8D10CBD22
:10251000003802400070004008544007003C024070
:1025200010B500F035F810BD10B51548006840F43E
:102530007000134908601348006840F00100114919
:10254000086000200F49083108600E4800680E49F5
:1025500008400C4908600D48091D0860081F006804
:1025600020F48020091F0860002006490C31086013
:10257000FFF760FF4FF0006001498039086010BD2F
:1025800088ED00E000380240FFFFF6FE1030002426
:102590000448006820B103480068401E01490860F3
:1025A000704700003C00002001F40072B2F5007F8B
:1025B00000D100BFCA430280704721B1828942F432
:1025C0000052828104E082894DF6FF731A408281B5
:1025D000704702460020B1F5007F00D100BF13888C
:1025E0000B400BB1012000E0002070472DE9FF47B0
:1025F00005460E460024A14600BFA046B08900B1A2
:1026000000BF2C8A24F44054F08804432C82AC8907
:1026100041F20C608443B0883189084371890843D2
:102620000443AC81AC8A24F44074B0890443AC8286
:102630006846FEF7C7FD2048854202D01F48854204
:1026400002D1DDF80C9001E0DDF80890A88900F4D3
:10265000004040B109EBC90000EB091031684900A6
:10266000B0FBF1F707E009EBC90000EB0910316896
:102670008900B0FBF1F76420B7FBF0F004012009FA
:10268000642101FB1078A88900F4004040B1322099
:1026900000EBC800B0FBF1F000F00700044308E0D5
:1026A000322000EB08106421B0FBF1F000F00F00C5
:1026B00004432C81BDE8FF87001001400014014055
:1026C000C1F308028280704700BFFEE730B50024E6
:1026D00000250123042200215F48FEF7E7FD0446A0
:1026E0005E48844201D0012030BD002304221146FF
:1026F0005948FEF7DBFD5A490860012304220821EE
:102700005548FEF7D3FD04465648844201D00220C6
:10271000EAE7012304220C214F48FEF7C7FD0446D7
:102720005148844201D00320DEE700230422102117
:102730004948FEF7BBFD0446102C00D001250023BC
:10274000022214214448FEF7B1FD4549888008461D
:102750008088012801D00420C6E700230222162128
:102760003D48FEF7A3FD3E49C880002304221821FE
:102770003948FEF79BFD3A498860002304221C215A
:102780003548FEF793FD3649C86000230222202118
:102790003148FEF78BFD32490882002302222221B4
:1027A0002D48FEF783FD2E4948820846408A1028AE
:1027B00001D0052098E724202C490860012D23D161
:1027C0000023022224212448FEF770FD04460CB1A8
:1027D000062089E70123042226211F48FEF766FD13
:1027E00004462348844201D007207DE700230422C9
:1027F0002A211948FEF75AFD044604F10A001B4934
:10280000096808441949086018480068C1B20123E2
:1028100004221148FEF74AFD044614480068001DD2
:10282000124908601348844201D008205CE70F4831
:102830000068C1B2002304220748FEF737FD0849AB
:1028400048610A480068001D084908600846006899
:1028500009490860002047E75800002046464952D1
:10286000581000204556415720746D66080000201E
:1028700074636166617461640C00002010B5ADF58D
:102880008B6D00248AA9002000F062FE012238A18D
:1028900001A800F073FE6B464FF48062384901A82E
:1028A00000F022FF02E037A0FDF7E0FCFFF70EFF8B
:1028B0000028F8D1374840693749086035498868A9
:1028C000FDF756FD3548016801A800F069FD6B462B
:1028D0004FF480622A4901A800F006FF6B464FF4CE
:1028E00080622F4901A800F0FFFE4FF48061244868
:1028F000FDF7CEFD01202B49087000202A49086011
:102900002EE000BF284800680028FBD000202649A0
:1029100008602448007878B94FF480611848FDF7C2
:10292000B7FD6B464FF480621D4901A800F0DCFE44
:1029300001201C4908700EE04FF480611848FDF733
:10294000A7FD6B464FF480620D4901A800F0CCFE54
:10295000002014490870601CC4B2642C00D100240B
:102960000D4800680028CCD10DF58B6D10BD00001E
:10297000303A2F7761762F312E7761760000000094
:102980005800002066696C6520726561642065727C
:10299000726F720058100020000000200C00002010
:1029A00058080020100000200400002000BF7047DD
:1029B00070B504460D46607801232A4604F13001C3
:1029C00000F06AFC08B1032070BD94F82E1294F850
:1029D0002F0241EA00204AF65521884201D0022008
:1029E000F2E794F86900010694F8680041EA0041B2
:1029F00094F8670041EA002094F86610084320F03C
:102A00007F400E49884201D10020DDE794F885001F
:102A1000010694F8840041EA004194F8830041EAF9
:102A2000002094F88210084320F07F400349884238
:102A300001D10020C8E70120C6E70000464154004C
:102A4000024600E0521C107810B110788842F9D18B
:102A5000107870472DE9F74F86B00698006800900F
:102A60000098007830380590059809280AD8009811
:102A700040783A2806D10098801C0090069900986A
:102A8000086001E000200590059818B10B2009B0FE
:102A9000BDE8F08FC749059851F8204007980460B9
:102AA0000CB90C20F3E7207878B1607800F02EFCA8
:102AB000804608F0010040B9089820B108F00400F1
:102AC00008B10A20E3E70020E1E700202070059824
:102AD0006070607800F0CAFB804608F0010008B121
:102AE0000320D4E7089820B108F0040008B10A20B8
:102AF000CDE74FF0000A51462046FFF759FF054643
:102B0000012D13D104F5F777387978B1F87A0106F9
:102B1000B87A41EA0041787A41EA0020397A40EAFD
:102B2000010A51462046FFF743FF0546032D01D118
:102B30000120ACE70DB10D20A9E73B20015D94F821
:102B40003C0041EA0020B0F5007F01D00D209EE757
:102B50004620015D94F8470041EA0029B9F1000FD1
:102B60000ED194F85700010694F8560041EA00414E
:102B700094F8550041EA002094F8541040EA010905
:102B8000C4F81C904020065DE670012E03D0022E92
:102B900001D00D207BE709FB06F93D20005D0646CC
:102BA000A07016B1701E304008B10D206FE74120B3
:102BB000015D94F8420041EA00202081207A00F073
:102BC0000F0008B10D2062E74320015D94F8440036
:102BD00041EA00200490049870B994F8530001066B
:102BE00094F8520041EA004194F8510041EA002073
:102BF00094F85010084304903E20015D94F83F0083
:102C000041EA00200190019808B90D203FE70198A2
:102C10004844218900EB11100390DDE90301814252
:102C200001D20D2033E7DDE90310401AA178B0FB93
:102C3000F1FBBBF1000F01D10D2028E7012540F683
:102C4000F670834500D302254FF6F670834500D316
:102C500003250BF10200A06103985044A062019883
:102C600050442062032D16D1208908B10D200EE7B3
:102C700094F85F00010694F85E0041EA004194F880
:102C80005D0041EA002094F85C1008436062A0698E
:102C90008000029014E0208908B90D20F7E6206A30
:102CA00048446062022D02D1A069400007E0207E06
:102CB00000F00100A16901EB410100EB510002901D
:102CC000E169029800F2FF10B1EB502F01D20D2004
:102CD000DDE64FF0FF3020610020E060032D5CD185
:102CE000607194F8601094F8610041EA002050444B
:102CF00060616078012304F13001626900F0CCFA70
:102D0000F0BB94F82E1294F82F0241EA00204AF604
:102D10005521884241D13320005D01063220005DFB
:102D200041EA00413120005D41EA002094F8301072
:102D300008432149884230D194F81702010694F8DB
:102D4000160241EA004194F8150241EA002094F885
:102D500014120843194988421FD194F81F02010632
:102D600094F81E0241EA004194F81D0241EA002055
:102D700094F81C120843E06094F81B02010600E07E
:102D80000BE094F81A0241EA004194F8190241EA72
:102D9000002094F818120843206125700848008824
:102DA000401C80B206490880E0800020E06220716B
:102DB00000BF6CE6500000205252614172724161C6
:102DC000540000200246891E9069801E884201D866
:102DD000002070479378906A01FB0300F9E72DE922
:102DE000F04704468946B9F1000F06D1E76817B1EC
:102DF000A069B84211D801270FE04946204600F0EB
:102E0000B9FD0646022E02D20120BDE8F087A06976
:102E1000B04201D93046F8E74F463D4600BF6D1C31
:102E2000A069A84204D80225BD4201D90020ECE7E0
:102E30002946204600F09EFD064606B909E0701CB2
:102E400008B1012E01D13046DFE7BD42E7D10020B5
:102E5000DBE700BF6FF070422946204600F071FEAC
:102E60008046B8F1000F08D1B9F1000F05D02A460D
:102E70004946204600F065FE8046B8F1000F09D1B2
:102E8000E5602069401C68B12069401E2061012076
:102E9000607107E0B8F1010F02D14FF0FF3000E0A0
:102EA000012005462846B0E72DE9F35F00988669C2
:102EB0000B222021304600F001FE0020054680460E
:102EC00082464FF008090198D0F800B000BF504684
:102ED0000AF1010A1BF80040202C03DD2F2C01D041
:102EE0005C2C00D152E02E2C01D0C8450ED3B9F194
:102EF000080F01D12E2C02D00620BDE8FC9F4FF018
:102F000008084FF00B09A806050EE0E7802C01DB4E
:102F100045F00305812C1DDBFE2C1BDC50460AF11D
:102F2000010A1BF80070402F01DB7E2F03DD802F8C
:102F300005DBFE2F03DCA9F10100404501D8062086
:102F4000DBE7404608F101083454404608F1010827
:102F500037541AE0214622A0FFF772FD08B106207F
:102F6000CBE7412C04DB5A2C02DC45F0020508E0DB
:102F7000612C06DB7A2C04DC45F00105A4F120006D
:102F8000C4B2404608F101083454A0E700BF0BEB7F
:102F90000A0101980160202C01DC042000E00020DF
:102FA0000446B8F1000F01D10620A6E73078E528E5
:102FB00001D105203070B9F1080F01D1A806050E26
:102FC00005F00300012801D144F0100405F00C00C5
:102FD000042801D144F00804F47200208DE70000B9
:102FE000222A2B2C3A3B3C3D3E3F5B5D7C7F000020
:102FF0002DE9F04104460021204600F0E9F805469D
:1030000015B12846BDE8F08100BF2169206800F0B5
:103010005FFD054605B116E0666937780FB90425EE
:1030200011E0F07A00F0080030B90B223046A169B7
:1030300000F024FD00B906E00021204600F006F86B
:103040000546002DE1D000BF2846DBE72DE9F04121
:1030500004468846E088401C86B20EB1206910B94B
:103060000420BDE8F08106F00F0000286FD1206930
:10307000401C2061E06828B920680089B04266DC05
:103080000420EEE720688078401E00EA1610002831
:103090005DD1E168206800F06DFC0546012D01D886
:1030A0000220DEE7681C08B90120DAE720688069A1
:1030B000A84246D8B8F1000F01D10420D1E7E16859
:1030C0002068FFF78CFE05460DB90720C9E7012DE2
:1030D00001D10220C5E7681C08B90120C1E7002121
:1030E000206800F0F5FC08B10120BAE7216801F181
:1030F00030004FF40072002100F0E0FC2946206807
:10310000FFF760FE2168C862002710E001202168F7
:1031100008710021206800F0DBFC08B10120A0E765
:103120002068C06A401C2168C862781CC7B2206849
:103130008078B842EADC2068C06AC01B2168C86297
:1031400000BFE56029462068FFF73CFE2061E6806D
:103150002068303006F00F0100EB41106061002064
:103160007FE72DE9F04104460021204600F030F8C9
:103170000546ADB900BF2169206800F0A9FC0546ED
:1031800005B10CE060690678E52E00D006B906E0CE
:1031900001212046FFF75AFF0546002DEBD000BF66
:1031A0009DB92169206800F093FC05466DB96769F7
:1031B00020220021384600F081FC0B223846A1690C
:1031C00000F06FFC0120216808712846BDE8F081FD
:1031D0002DE9F04104460E46E680A568012D03D096
:1031E00020688069A84202D80220BDE8F0812DB98C
:1031F00020680078032801D12068456A65B9E56038
:1032000020680089B04201DC0220EEE72068406AB5
:1032100000EB1610206120E020688078070112E0A2
:103220002946206800F0A6FB0546681C08B9012065
:10323000DBE7022D03D320688069A84201D8022071
:10324000D3E7F01B86B2BE42EADAE5602946206881
:10325000FFF7B8FD00EB161020612068303006F053
:103260000F0100EB411060610020BEE770B505461C
:1032700025B1012D0AD0022D0CD109E0FEF736FB55
:1032800004460CB9002070BD0120FCE70120FAE7DC
:103290000120F8E70120F6E72DE9F04107468846CE
:1032A00015461E4616B90420BDE8F08127B1012F4E
:1032B00024D0022F24D122E0012E09D11248B0F8E7
:1032C000480082B269024046FEF7A4FD044609E0C8
:1032D0000D48B0F8480082B2690233464046FEF716
:1032E00009FE0446FEF7DAFE044600BFFEF7EFFAD9
:1032F0000028FBD104B9D7E70120D5E701E000E0C1
:1033000000BF00BF0120CFE7DC100020014621B143
:10331000012904D0022906D103E0002070470020D3
:10332000FCE70020FAE700BF00BF0120F6E700003D
:103330002DE9F0410746884615461E4616B9042079
:10334000BDE8F08117B1022F23D121E0012E09D170
:103350001248B0F8480082B269024046FEF7DCFE2F
:10336000044609E00D48B0F8480082B269023346CD
:103370004046FEF73FFF0446FEF790FE044600BFBE
:10338000FEF7A5FA0028FBD104B9D9E70120D7E759
:1033900000E000BF00BF0120D2E70000DC100020E9
:1033A0002DE9F04704460E46A188206800F098FCFD
:1033B0008246BAF1000F02D05046BDE8F087A079EE
:1033C00000F0800008B10220F7E7E068B04204D2C4
:1033D000A07900F0020000B9E668D4F808904FF038
:1033E0000008C4F80880002E77D020688078470253
:1033F000B9F1000F11D0701EB0FBF7F1A9F1010077
:10340000B0FBF7F0814208D3A9F10100791E88438F
:10341000A060A068361A656918E02569ADB9002179
:103420002068FFF7DCFC0546012D05D1A07940F0AE
:103430008000A0710220C0E7681C28B9A07940F084
:103440008000A0710120B8E725616561002D44D09E
:1034500029E0A07900F0020038B129462068FFF782
:10346000BEFC054635B93E461FE02946206800F0FF
:1034700081FA0546681C28B9A07940F08000A07147
:1034800001209AE7012D03D920688069A84205D858
:10349000A07940F08000A07102208EE76561A068ED
:1034A0003844A060F61BBE42D3D800BFA0683044A9
:1034B000A060C6F3080068B129462068FFF782FCC7
:1034C0008046B8F1000F06D1A07940F08000A071CD
:1034D000022072E701E008EB56282089C0F30800BB
:1034E00050B3A069404527D0A07900F0400090B1CA
:1034F00021684878012304F12401A269FFF718FF2D
:1035000028B1A07940F08000A071012055E7A07992
:1035100020F04000A071216848780123424604F160
:103520002401FFF7B9FE28B1A07940F08000A07116
:10353000012042E7C4F81880D4E90201884205D985
:10354000A068E060A07940F02000A071504634E708
:103550000246012A01DB0B207047074850F8223051
:103560000BB10020187009B100200870024840F823
:1035700022100020F0E70000500000202DE9F74362
:103580008AB0054616460020286006F01F0626F081
:10359000010203A90BA8FFF75DFA0746CDF824D076
:1035A00027B903A80B9900F084F90746089C0FB9C6
:1035B00004B9062706F01C00002858D04FB1042F8C
:1035C00003D103A8FFF7CDFD074646F00806089C87
:1035D00009E006F0040008B1082704E0E07A00F0F2
:1035E000110000B10727002F40D106F00800002885
:1035F0003CD000F031FA804684F80E804FEA182162
:10360000E1734FEA184121744FEA18616174002098
:10361000E072207700216177A177E177A17EE07EDB
:1036200041EA0021227D607D42EA002041EA004912
:103630000020A0760021E1762075617501200399B4
:103640000871B9F1000F11D00398D0F82C804946C9
:10365000039800F011FB074647B9A9F1010003994F
:10366000C8604146039800F033FA07460EE06FB990
:10367000E07A00F0100008B1042707E006F002002D
:1036800020B1E07A00F0010000B1072747B906F049
:10369000080008B146F020060398C06AE8612C6271
:1036A000F7B9AE71A17EE07E41EA0021227D607D06
:1036B00042EA002041EA00402861E07F0106A07F45
:1036C00041EA0041607F41EA0020217F0843E86031
:1036D0000020A860A861039828600398C088A8808B
:1036E00038460DB0BDE8F0832DE9FF4F83B00446A6
:1036F00015469A46DDF810B00020CAF80000A188EF
:10370000206800F0EDFA0290029818B1029807B014
:10371000BDE8F08FA07900F0800008B10220F6E744
:10372000A07900F0010008B90720F0E7D4E9021001
:10373000401A00900098854200D9009DB4E020898D
:10374000C0F3080000287AD120688078401EA16864
:1037500000EA512000F0FF09B9F1000F1CD1A06868
:1037600008B9206903E06169206800F003F901905D
:103770000198012805D8A07940F08000A0710220AE
:10378000C5E70198401C28B9A07940F08000A071DD
:103790000120BCE70198606161692068FFF712FBB6
:1037A00006462EB9A07940F08000A0710220AEE755
:1037B0004E444FEA5528B8F1000F2DD009EB080010
:1037C00021688978884203D920688078A0EB0908AD
:1037D00008F0FF032168487832465946FFF75CFD40
:1037E00028B1A07940F08000A07101208FE7A07976
:1037F00000F0400068B1A069801B404509D2A16972
:10380000891B0BEB41204FF4007204F1240100F0FE
:1038100048F94FEA48273DE0A07900F0400098B110
:1038200021684878012304F12401A269FFF780FD93
:1038300030B1A07940F08000A071012067E716E068
:10384000A07920F04000A071A069B0420ED021689C
:1038500048780123324604F12401FFF71DFD28B109
:10386000A07940F08000A071012050E7A661208976
:10387000C0F30800C0F50077AF4200D92F46208979
:10388000C0F3080204F1240011183A46584600F02B
:1038900008F900BFBB44A0683844A060DAF8000013
:1038A0003844CAF80000ED1B002D7FF448AF00201B
:1038B0002DE72DE9F3410446019800782F2803D025
:1038C000019800785C2802D10198401C01900020EA
:1038D000A06001980078202807D200212046FFF739
:1038E00077FC0646002060612FE000BF01A920465A
:1038F000FFF7DAFA064606B126E02046FFF778FB26
:103900000646A069C77A46B1042E00D01CE000BF6D
:1039100007F0040000B9052616E007F0040000B126
:1039200012E06569E87A00F0100008B905260BE09E
:10393000A97EE87E41EA00212A7D687D42EA0020D6
:1039400041EA0040A060D1E700BF3046BDE8FC81FD
:1039500070B504460D46E1B20548FEF7B1FE00BF62
:1039600040210348FEF735FE0028F9D0204670BDFF
:10397000001001402DE9F04105460C46022C02D30F
:10398000A869A04202D80120BDE8F081287801286A
:1039900004D002282CD003285AD13DE0274607EB5B
:1039A0005707286A00EB5721284600F091F800B12C
:1039B0004EE0C7F3080105F1300010F801807F1CCC
:1039C000286A00EB5721284600F082F800B13FE05A
:1039D000C7F3080105F13000405C48EA002804F014
:1039E000010010B14FEA1810CEE7C8F30B00CBE787
:1039F000286A00EB1421284600F06AF800B127E09D
:103A000040F2FF1000EA440105F130000E18307852
:103A1000717840EA0120B7E7286A00EBD411284604
:103A200000F056F800B113E040F2FF1000EA840104
:103A300005F130000E18F0780006B17840EA014038
:103A4000717840EA01203178084320F070409BE70C
:103A500000BF4FF0FF3097E7002070474FF4E13090
:103A6000FCF738FD03A0FCF701FCFEF707FF00BFE1
:103A7000FEE7000074657374210D0A00F0B503467B
:103A80001C460D46002000BF1600A2F1010207D01F
:103A900014F8017B15F801CBA7EB0C063000F3D02E
:103AA000F0BD70B503460C4603E014F8015B03F863
:103AB000015B1500A2F10102F7D170BD30B50346DC
:103AC00001E003F8011B1400A2F10102F9D130BD9D
:103AD0002DE9F04104460D46E66AAE422FD020792A
:103AE00008B360780123324604F13001FFF720FC6F
:103AF00010B10120BDE8F08100202071D4E9071049
:103B00000844B0420FD9E7780AE0E06906446078DB
:103B10000123324604F13001FFF70AFC781EC7B2D8
:103B2000012FF2DC00BF55B1607801232A4604F171
:103B30003001FFF7B1FB08B10120DBE7E5620020AF
:103B4000D8E72DE9F04705460E461746022E02D368
:103B5000A869B04202D84FF002088AE0287801280C
:103B600004D0022841D003287DD154E0B14609EBAE
:103B70005909286A00EB59212846FFF7A9FF80461A
:103B8000B8F1000F00D071E0C9F3080105F1300071
:103B90000C1806F0010020B1F9B2207861F31F1073
:103BA00000E03846207009F1010901202871286AD7
:103BB00000EB59212846FFF78BFF8046B8F1000F34
:103BC00000D053E0C9F3080105F130000C1806F0ED
:103BD000010010B1C7F3071005E0207800F0F000F5
:103BE000C7F303210843207040E0286A00EB162148
:103BF0002846FFF76DFF8046B8F1000F00D035E092
:103C000040F2FF1000EA460105F130000C18277061
:103C1000380A60702AE0286A00EBD6112846FFF7C0
:103C200057FF8046B8F1000F00D01FE040F2FF10B0
:103C300000EA860105F130000C18E0780006A17852
:103C400040EA0140617840EA01202178084300F011
:103C5000704007432770380A6070380CA070380E27
:103C6000E07003E0FFE74FF0020800BF00BF012053
:103C700028714046BDE8F0872DE9F04104460E4624
:103C8000022E02D3A069B04201D8022725E0002706
:103C90001FE031462046FFF76DFE054605B91BE0E3
:103CA000012D01D1022717E0681C08B9012713E094
:103CB000002231462046FFF744FF074607B10BE0DC
:103CC0002069401C20B12069401C206101206071E6
:103CD0002E46A069B042DCD800BF3846BDE8F0816E
:103CE00070B504460D4624B1207810B1E088A84292
:103CF00001D0092070BD6078FFF708FB00F00100DB
:103D000008B10320F6E70020F4E74FF04070E1EE41
:103D1000100A7047343D00080000002058000000E1
:103D2000C40100088C3D00085800002078530000B2
:103D3000E00100080000000000000000000000009A
:103D40000000000001000000FFFF00000000000074
:103D50000000000000000000000000000000000063
:103D60000000000000000000000000000000000053
:103D7000000000000000000001020304010203042F
:0C3D800006070809000000000000000019
:040000050800018965
:00000001FF
